:020000040800F2
:1000000010D9012099020008A7020008A9020008DF
:10001000AB020008AD020008AF02000800000000BB
:10002000000000000000000000000000B102000815
:10003000B302000800000000B5020008B702000883
:10004000B9020008B9020008B9020008B9020008A4
:10005000B9020008B9020008B9020008B902000894
:10006000B9020008B9020008B9020008B902000884
:10007000B9020008B9020008B9020008B902000874
:10008000B9020008B9020008B9020008B902000864
:10009000B9020008B9020008B9020008B902000854
:1000A000B9020008B9020008B9020008B902000844
:1000B000B9020008B902000895790008B9020008E1
:1000C000B9020008B9020008B9020008B902000824
:1000D000B9020008217A0008B9020008B902000834
:1000E000B9020008B9020008B9020008B902000804
:1000F000B9020008B9020008B9020008B9020008F4
:10010000B9020008555E0008B9020008B9020008EB
:10011000B9020008B9020008B9020008B9020008D3
:10012000B9020008B9020008B9020008B9020008C3
:10013000B9020008B9020008B9020008B9020008B3
:10014000B9020008B9020008B9020008A95D000858
:10015000B9020008B9020008B9020008B902000893
:10016000B9020008B9020008B9020008B902000883
:10017000B9020008B9020008B9020008B902000873
:10018000B9020008B902000800F002F800F06DF8AA
:100190000AA090E8000C82448344AAF10107DA45E2
:1001A00001D100F062F8AFF2090EBAE80F0013F0C7
:1001B000010F18BFFB1A43F001031847B45D01009B
:1001C000D45D01000A444FF0000C10F8013B13F01D
:1001D000070408BF10F8014B1D1108BF10F8015BA0
:1001E000641E05D010F8016B641E01F8016BF9D193
:1001F00013F0080F1EBF10F8014BAD1C0C1B09D1EA
:100200006D1E58BF01F801CBFAD505E014F8016B5B
:1002100001F8016B6D1EF9D59142D6D370470000ED
:100220000023002400250026103A28BF78C1FBD8FF
:10023000520728BF30C148BF0B607047642900F0E7
:10024000CF80752900F0CC80782900F003816329E4
:1002500000F09683732900F09B83002070471FB540
:1002600013F0E5FB1FBD10B510BD00F0F5FB114606
:10027000FFF7F5FF10F0B4FB00F013FC03B4FFF739
:10028000F2FF03BC0BF0E3FC30BF72B6704762B6FE
:10029000704780F3088870470B48016841F470018B
:1002A00001600A480047FEE7FEE7FEE7FEE7FEE7DB
:1002B000FEE7FEE7FEE7FEE7FEE70000044805492B
:1002C000034A054B7047000088ED00E089010008F3
:1002D00010D5012010D9012010D50120704710B58C
:1002E0004C1084EA530404D54042C1F1000138BFE8
:1002F000491E1B4204D55242C3F1000338BF5B1EA6
:1003000000F064FA14F0804F04D04042C1F10001C3
:1003100038BF491E14F0004F04D05242C3F100030D
:1003200038BF5B1E10BD00000FB4044910B503AA0E
:10033000029800F031FB10BC5DF814FB04000020B3
:1003400070B5044685690068C10601D5302600E015
:100350002026C00707D070BDD4E901213046904760
:10036000206A401C20626D1EF6D570BD70B5044633
:1003700085690078C00707D170BDD4E9012120202C
:100380009047206A401C20626D1EF6D570BD70B586
:100390000C460546012A05D02878800600D5EA6972
:1003A000002302E0012305E05B1C934202D2E05CE3
:1003B0000028F9D1A869E618C01AA861286A18446B
:1003C00028622846FFF7BCFF04E0D5E9012114F8B4
:1003D000010B9047B442F8D32846FFF7C7FF70BD22
:1003E0002DE9F0410646002410687529314615A50F
:1003F00010D0AFF30080002802DA404212A507E0D7
:1004000031688A0701D511A502E0490704D510A576
:10041000012401E0AFF3008000210A2306F1240744
:1004200007E0B0FBF3F203FB1200303078541046C3
:10043000491C0028F5D123462A463046BDE8F04144
:1004400000F03BBA000000002D0000002B0000006F
:100450002000000070B504460D4621461068AFF339
:1004600000802188090502D50F4A7A4402E00E4A2D
:100470007A440E32002104F1240305E000F00F0657
:100480000009965D5E54491C0028F7D120780023AE
:10049000000704D5702D02D009B102231132204685
:1004A000BDE8704000F009BA025701002DE9F05F85
:1004B000894604464FF0000ADFF874B1FB44C0F8E7
:1004C00020A02046E1688847002874D0252806D05F
:1004D000D4E901219047206A401C2062F1E7002600
:1004E0005F462046E16888472028054607DB312D16
:1004F00005D2781910F8200C08B10643F1E7B007CF
:1005000001D526F00406C4F81CA00027C4F818A0E2
:100510002A2D09D028460BF093FB38B304EB87084B
:10052000303DC8F8185019E059F8041B204604EB78
:1005300087029161E1688847012F054618D1E0697B
:10054000002820DA26F020061DE0D8F8180000EB7D
:10055000800005EB40003038C8F818002046E168FC
:10056000884705460BF06CFB0028EED1012F0AD01E
:100570002E2D08D12046E16888477F1C0546022FB2
:1005800046F02006C4DBA069002803DA404246F0AA
:100590000106A061F00701D026F010066C2D0BD0EB
:1005A000682D09D04C2D39D06A2D35D0742D35D019
:1005B0007A2D33D016E038E0E1682F462046884790
:1005C000B842054609D16C2F26D04FF48060E1680F
:1005D000064320468847054604E06C2F1AD04FF4A6
:1005E000807006430DB3A5F14100192802D82035CB
:1005F00046F400664A462946204626604E46FFF7E6
:100600001DFE80B101280BD0F61D26F0070000F179
:10061000080956E74020E4E78020D8E70020D6E725
:1006200006F104094DE7284652E7206ABDE8F09F2D
:10063000D856010040EA0103024630B59B0710D1AD
:100640004FF0013400E008C208C91D1B9D4315EAA4
:10065000C41FF8D013F0FF0102F8011B0DD01B0AD4
:10066000F8E711F8013B002B02F8013B05D011F827
:10067000013B002B02F8013BF3D130BD10B5431C08
:1006800002E010F8011B71B18107FAD14FF001327D
:1006900002C88C1A8C4314EAC211F9D0C01A0A0697
:1006A00003D0C01E10BDC01A10BD0A0401D0801EA8
:1006B00010BD0902FCD0401E10BD032A40F230805C
:1006C00010F0030C00F0158011F8013BBCF1020F93
:1006D000624498BF11F801CB00F8013B38BF11F814
:1006E000013BA2F1040298BF00F801CB38BF00F82B
:1006F000013B11F0030300F06181083AC0F008806B
:1007000051F8043B083A51F804CBA0E80810F5E78B
:10071000121D5CBF51F8043B40F8043BAFF300806E
:10072000D20724BF11F8013B11F801CB48BF11F8E3
:10073000012B24BF00F8013B00F801CB48BF00F8B3
:10074000012B70474FF0013C50F8042B51F8043B4B
:100750009A4221D1A2EB0C03934313EACC1317D195
:1007600050F8042B51F8043B9A4215D1A2EB0C032C
:10077000934313EACC130BD150F8042B51F8043BEC
:100780009A4209D1A2EB0C03934313EACC13DBD0BA
:100790004FF00000704700BFD01A01BAB1FA81F1E2
:1007A00001F0180122FA01F0CB40C1F12001DBB2C7
:1007B000C0B2C01A2CFA01F3D11A914311EAC31145
:1007C000E6D17047704770477047704753EA020C94
:1007D00000F069802DE9F04B4FF00006002B1FBFA1
:1007E000B3FA83F503FA05F424FA05F65E4012BF66
:1007F0001643B2FA82F502FA05F4C5F120051EBFD0
:1008000022FA05FC44EA0C04203556EA044C4FEA6F
:10081000144418BF641C4FF000084FF000099042C8
:1008200071EB030C39D3002919BFB1FA81F701FA32
:1008300007F6B0FA80F700FA07F6C7F120071EBFE7
:1008400020FA07FC46EA0C062037B6FBF4FCA7EBBF
:100850000507103F07F01F0BCBF120060CFA0BFB2E
:100860002CFA06F644BFB3460026202FA4BF5E46EE
:100870004FF0000B5BEA060C08BF4FF0010B19EBC1
:100880000B09ABFB027C48EB0608C01B06FB02CC45
:100890000BFB03CC71EB0C01C1E70B460246414652
:1008A0004846BDE8F08B13B54FF000004FF0000153
:1008B000AFF30080BDE81C4070472DE9F0470D46BE
:1008C00099469246044600F124080168880604D53A
:1008D000E06921F01001216000E00120A84201DD63
:1008E000471B00E00027A1697A1902EB0900081AEA
:1008F000A0612078C00602D42046FFF721FD002623
:1009000008E0D4E901211AF806009047206A401C4B
:10091000761C20624E45F4DB2078C0060AD52046BE
:10092000FFF70EFD06E0D4E9012130209047206A50
:10093000401C2062381EA7F10107F4DC07E0D4E96F
:10094000012118F805009047206A401C2062281EEB
:10095000A5F10105F3DC2046FFF708FD207800062D
:1009600002D50220BDE8F0870120FBE710B54369FE
:1009700013B1AFF3008001E0FFF709FD012010BDC6
:10098000127800F124010A7000224A700122EDE77A
:1009900011684FF0FF32E9E7074B70B50D467B4415
:1009A00000F043F80446284600F052F810B14FF02A
:1009B000FF3070BD204670BD6FE6000010B5203AD4
:1009C000C0F00B80B1E81850203AA0E81850B1E808
:1009D0001850A0E81850BFF4F5AF5FEA027C24BFBE
:1009E000B1E81850A0E8185044BF18C918C0BDE8B5
:1009F00010405FEA827C24BF51F8043B40F8043B7E
:100A000008BF7047D20728BF31F8023B48BF11F832
:100A1000012B28BF20F8023B48BF00F8012B70478C
:100A200001694A1C02610878704700B58FB0CDE9B2
:100A300001310021059105497944CDE903101146A2
:100A40006846FFF733FD0FB000BD0000E5FFFFFF74
:100A5000007B00F080007047754600F029F8AE4634
:100A600005006946534620F00700854618B020B5BA
:100A7000FFF724FCBDE820404FF000064FF00007D0
:100A80004FF000084FF0000B21F00701AC46ACE836
:100A9000C009ACE8C009ACE8C009ACE8C0098D46A3
:100AA00070470446AFF300802046FFF7E7FB0000E5
:100AB00000487047B0D4012000224FF4803105E097
:100AC0000A48006800F0800000B103E00800A1F1CE
:100AD0000101F5D100BF09B90320704740F2FF5072
:100AE000024B1B1D18601046F7E70000342C014034
:100AF000024605E01548016801F0450000B100E03C
:100B0000F8E700BF01F0040028B104200F4B1B1DC3
:100B100018600320704701F0010020B101200B4B49
:100B20001B1D1860F6E7094824380068904201D080
:100B30001020EFE740F2FF50044B1B1D18600348E4
:100B40002038006808231840C0B2E3E7342C014085
:100B500010B500204FF4803205E0164B196801F003
:100B6000450303B103E01300A2F10102F5D100BF78
:100B700012B101F004034BB103200E4B1B1D1B6887
:100B800043F004030B4C241D236010BD01F001034E
:100B900043B10120074B1B1D1B6843F00103054CAB
:100BA000241D236040F2FF53024C241D236000BF2C
:100BB000EBE70000342C014005E00E48016801F02D
:100BC000450000B100E0F8E700BF01F0040048B1C3
:100BD0000848001D006840F00400064A121D10601D
:100BE0000320704740F2FF50024A121D106000209F
:100BF000F7E70000342C014070B503460C46002591
:100C000005E02448026802F0450000B100E0F8E782
:100C100000BF02F0040048B11E48001D006840F00B
:100C200004001C4E361D3060032070BD02F0010030
:100C300048B11848001D006840F00100154E361DEF
:100C400030600120F1E7134824380068984201D051
:100C50001020EAE740F2FF500E4E361D30600D487E
:100C60002038016801F4604018B9080C208028463B
:100C7000DBE701F4005008B11320D6E701F480400F
:100C800008B11020D1E701F4004008B10F20CCE7F3
:100C90002846CAE7342C014010B500204FF48032BA
:100CA00005E0134B196801F0450303B103E013009D
:100CB000A2F10102F5D100BF12B101F004034BB162
:100CC00003200B4B1B1D1B6843F00403084C241D21
:100CD000236010BD01F0400343B10020044B1B1DF5
:100CE0001B6843F04003024C241D236000BFF0E763
:100CF000342C014070B504460D461248407860B16E
:100D000010484178204609F0D4FA0E484178204630
:100D100007F059F800200B4948700A48007860B184
:100D200008480178204609F0C4FA064801782046B0
:100D300007F049F800200349087003480CF018FA3E
:100D400070BD00004203002018CF0120FCB507460B
:100D50000D46002600240020009001900822012169
:100D6000102005F07BF81020FFF7C2FE04460CB1FE
:100D70002046FCBD3A040121372005F06FF83720EA
:100D8000FFF7B6FE04460CB12046F2E7012303222A
:100D90000821101F05F078F800220121332005F00A
:100DA0005DF83320FFF7A4FE04460CB12046E0E7CF
:100DB0000DE03C48006800F4001040B139484C3068
:100DC00000684DF82600761C022E00D306E0354858
:100DD000006840F22A6108400028EAD000BF31488C
:100DE000006800F0080048B12E48001D006840F07F
:100DF00008002C49091D08600420BAE7294800684A
:100E000000F0020048B12748001D006840F00200D1
:100E10002449091D08600220ABE72248006800F061
:100E2000200048B11F48001D006840F020001D4907
:100E3000091D086006209CE71A48006800F400704D
:100E400048B11848001D006840F400701549091D9C
:100E5000086007208DE740F2FF501249091D086025
:100E600000980006009901F47F4140EA01200099B2
:100E700001F47F0140EA1120009940EA11606860A6
:100E800001980006019901F47F4140EA012001998F
:100E900001F47F0140EA1120019940EA11602860C5
:100EA000204666E7342C014030B5CC1000F1200319
:100EB00053F824304C07E50E0F24AC40A343CD106B
:100EC00000F1200444F82530CC1000F1200353F841
:100ED00024304C07E40E02FA04F42343CD1000F151
:100EE000200444F8253030BD2DE9F0470C46DDE9FB
:100EF0000867002100258C4600BF60E04FF0010824
:100F000008FA01F504EA050CAC4557D1D0F8008089
:100F10004FEA410A4FF0030909FA0AF928EA0908D9
:100F2000C0F80080D0F800804FEA410902FA09F9C0
:100F300048EA0908C0F80080012A01D0022A27D116
:100F4000D0F808804FEA410A4FF0030909FA0AF97C
:100F500028EA0908C0F80880D0F808804FEA41095B
:100F600006FA09F948EA0908C0F80880D0F80490A0
:100F70004FF0010808FA01F829EA0809C0F80490BE
:100F8000D0F8048003FA01F948EA0908C0F804809F
:100F9000D0F80C804FEA410A4FF0030909FA0AF928
:100FA00028EA0908C0F80C80D0F80C804FEA410903
:100FB00007FA09F948EA0908C0F80C80491C102909
:100FC0009CD3BDE8F08700002DE9F05F82460F4614
:100FD00014462046E21704EB5272D2102146E31762
:100FE00004EB5373DB10A4EBC3030BB1012300E04C
:100FF00000231A44624302F0FF099AF800600AF1E4
:10100000010082460578812E05DB402D03DBFF2D94
:1010100001D0FF2E0DD14FF0000B06E0002007F8A5
:10102000010B0BF1010000F0FF0BCB45F6DBBDE837
:10103000F09F7F2D03DAA5F14000C5B202E0A5F1D3
:101040004100C5B2A6F18100C6B2BE2010FB065019
:1010500000FB09F80C2C04D0102C0CD0182C1ED13D
:1010600013E01048D0F8090000EB08014A46384662
:101070000AF0C0FC13E00B48D0F8110000EB0801A7
:101080004A4638460AF0B6FC09E00648D0F819008E
:1010900000EB08014A4638460AF0ACFC00BF00BF2E
:1010A00000BFC4E75CC6012001468869806880B241
:1010B000704708B50146D1F8D0000068009000984C
:1010C000C0F3414008BD024602F29F30405C7047C9
:1010D000024602F5557050F82100704770B504467D
:1010E0000E4600250021C4F8141300BF0BE00021B8
:1010F00004F5467040F825103C3040F825103C308F
:101100004155681CC5B20F2DF1DB0821A4F8B613B8
:101110003146204609F09CFB204608F0A3FF2046FC
:1011200008F06AFE0121204609F0FAFB204608F08B
:10113000F6FE204608F0EFFF002070BD0146D1F812
:101140001403704710B50446204609F060FB0020E8
:1011500010BD70B504460D46002104F29F30415584
:10116000113000EB451041612946204609F0FEF997
:1011700070BD00002DE9FC4107460C4625460122C2
:101180002C4801682C480CF06DFE95F852102BA0ED
:10119000FFF7CAF895F85A1028A0FFF7C5F895F898
:1011A00052002849887095F85A00C8705420405B56
:1011B000C8805C20405B888008468178384606F00D
:1011C0006FFC204948700846C178384606F068FC34
:1011D0001C490870084641781BA0FFF7A5F819487C
:1011E000017820A0FFF7A0F81648C0880221CDE9B9
:1011F00000102120435D95F82020124841783846A0
:1012000008F03AF9064676B90E4880880221CDE901
:1012100000102120435D95F820200A4801783846C7
:1012200008F02AF9064616B9022014490880002061
:10123000BDE8FC811C03002018CF012025780D0A91
:1012400000000000420300206D79436C6173732E2F
:1012500068635F6E756D5F6F7574203A25640D0A63
:10126000000000006D79436C6173732E68635F6EDC
:10127000756D5F696E203A25640D0A00FC0200203E
:101280001CB504460020019000902248008802040A
:1012900001210D2004F0E2FD1F480068009002E0EB
:1012A0001D4800680090009800F045000028F7D025
:1012B000009800F0010048B11748001D006840F098
:1012C00001001549091D086001201CBD009800F0AF
:1012D000040048B11048001D006840F004000E49A9
:1012E000091D08600320F0E70B48243800680D282A
:1012F00001D01020E9E740F2FF500749091D0860BE
:1013000005482038006801900198C0F34320207000
:101310000020DAE714000020342C01401CB51048EE
:10132000006840F001000E4908600846006840F07F
:1013300010000860012000210B460A46CDE900108C
:101340001C210848FFF7D0FD022000210B460A4669
:10135000CDE9001001210448FFF7C6FD1CBD0000C7
:1013600030380240001002400000024030B5014613
:1013700001F01F04C1F34513CA0AE50205EB43154A
:101380001544A8B230BD000070B5044600261748C9
:101390000588408845431548808846F60401884200
:1013A00016D112488079012812D100200F49887186
:1013B0002A2048812B2088810021084603F0C4FFA1
:1013C00001200A4988712B2048812A20888103E066
:1013D0000021084603F0B8FF04F066F9002602E099
:1013E00003480480761CAE42FAD370BD600A002028
:1013F0008000006C2DE9F84F07460D46904699464F
:10140000DDF828B0A8EB0700401C1FFA80FAA9EB12
:101410000500401C80B20090002414E0281981B21D
:10142000384603F091FF04F03FF9002607E004FB83
:101430000A603BF8100006490880701C86B25645C9
:10144000F5DB601C84B200988442E7DBBDE8F88FCE
:101450008000006C10B50446002C52D158498871A8
:10146000F02008804FF4A07048800846808849F238
:10147000413188420BD05248808846F604018842A8
:1014800005D04F48808845F2103188421AD12C206F
:101490004B4908812A2048812B2088810846808872
:1014A00046F60401884205D04548808845F210314F
:1014B000884206D14FF4A070414908804FF4F07083
:1014C000488079E03E48808845F21051884210D12A
:1014D0004FF430503A4908814FF4285048814FF476
:1014E0002C5088814FF4F07008804FF44870488089
:1014F00062E0222032490881202048812120888111
:101500005AE001202E4988714FF4A0700880F02025
:1015100048800846808849F24131884205D02848F1
:10152000808845F21031884207D12C202449088157
:101530002A2048812B2088812BE02148808846F68C
:101540000401884207D12C201D4908812B204881A5
:101550002A2088811DE01A48808845F2105188426F
:1015600010D14FF43050164908814FF4285048816B
:101570004FF42C5088814FF4487008804FF4F0707D
:10158000488006E022200E49088121204881202041
:1015900088810B48808846F60401884205D00848B7
:1015A000808845F21031884206D14FF4F07004492A
:1015B00008804FF4A0704880002003F06FFD10BD3C
:1015C000600A002070B504460D46164643488088E0
:1015D00049F24131884205D04048808845F21031B7
:1015E000884214D13D49488904F052F8201204F091
:1015F00043F8E0B204F040F83849888904F048F82C
:10160000281204F039F8E8B204F036F85DE0334807
:10161000808845F21051884220D13049488904F031
:1016200037F8201204F028F82C494989491C88B25F
:1016300004F02EF8E0B204F01FF82849888904F07D
:1016400027F8281204F018F824498989491C88B21F
:1016500004F01EF8E8B204F00FF836E01F48808866
:1016600046F6040188421DD11C488079012804D126
:101670001A480088401E001B84B21849488904F0AB
:1016800007F8201203F0F8FFE0B203F0F5FF13496A
:10169000888903F0FDFF281203F0EEFFE8B203F0A3
:1016A000EBFF12E00D488079012804D10B48008837
:1016B000401E001B84B209494889214603F0FEFF01
:1016C00006498889294603F0F9FF0448008904493E
:1016D00008804FF0D840A0F8806070BD600A0020FC
:1016E0007E00006C2DE9FC4F05460E4617469846D5
:1016F000DDF82C90002001902748808846F60401F0
:10170000884229D124488079012825D1AB46354625
:1017100021480088C01B401E86B247461E480088EC
:10172000A0EB0B00401E1FFA80F800201A498871B8
:101730002A2048812B20888143463A463146284654
:10174000CDF80090FFF7CEFF0120134988712B20C0
:1017500048812A2088811DE0781B401C80B20190BE
:10176000344615E02146284603F0EEFD03F09CFFC9
:101770004FF0000A07E04FF0D840A0F880900AF13F
:1017800001001FFA80FA01988245F4DB601C84B2E4
:101790004445E7DDBDE8FC8F600A00200EB500205F
:1017A0000290FE48006840F07800FC490860084656
:1017B000006840F002000860F8480830006840F017
:1017C0000100F64908310860012002210023024689
:1017D000CDE90010C103F248FFF786FB0120032189
:1017E00000230222CDE900104CF23371ED48FFF7DF
:1017F0007BFB0120032100230222CDE900104FF6DC
:101800008071E948FFF770FB0120032100230222C9
:10181000CDE900100103E548FFF766FB0120032135
:1018200000230222CDE900100103E148FFF75CFB31
:101830000C220021DB48FFF737FB0C220121D9489D
:10184000FFF732FB0C220421D648FFF72DFB0C22B8
:101850000521D448FFF728FB0C220821D148FFF7C7
:1018600023FB0C220921CF48FFF71EFB0C220A2183
:10187000CC48FFF719FB0C220E21CA48FFF714FBD6
:101880000C220F21C748FFF70FFB0C220721C64887
:10189000FFF70AFB0C220821C348FFF705FB0C22C7
:1018A0000921C148FFF700FB0C220A21BE48FFF7BF
:1018B000FBFA0C220B21BC48FFF7F6FA0C2211466A
:1018C000B948FFF7F1FA0C220D21B748FFF7ECFAFF
:1018D0000C220E21B448FFF7E7FA0C220F21B24880
:1018E000FFF7E2FA0C221146B048FFF7DDFA0C22AE
:1018F0001146AF48FFF7D8FA00204FF02041886129
:10190000C861AC4908604FF02040806940F48050C5
:101910004FF0204188610846806940F4804088612A
:101920000846806940F0100088610846C069C861B7
:101930000846C06940F00F00C8610846C06940F41D
:101940007050C8619B480068C1F81C010846D0F877
:101950001C0140F00900C1F81C010846D0F81C0128
:1019600040F40060C1F81C010846806940F00100A5
:10197000886132200AF060FF0121002003F09EFE02
:1019800032200AF059FF002003F07CFB8A4988804E
:1019900008468088FF280ADB084680884FF6FF71DA
:1019A000884204D084488088B0F5134F7ED1D3207C
:1019B00003F06EFE03F0A8FA7F49888003F0A4FAD2
:1019C0007D49888003F0A0FA7B498880084680889A
:1019D0004FF6FF7101EA00207749888003F094FAFE
:1019E000754989880843744988800846808849F287
:1019F0004131884278D0BF2003F04AFE03F084FAD8
:101A00006D49888003F080FA6B49888003F07CFA86
:101A10006949888003F078FA674988800846808899
:101A20004FF6FF7101EA00206349888003F06CFAE9
:101A3000614989880843604988800846808846F65D
:101A40000401884250D0D42003F022FE03F05CFA57
:101A50005949888003F058FA5749888003F054FAAE
:101A600055498880084680884FF6FF7101EA0020BA
:101A70005149888003F048FA4F49898808434E4904
:101A800088800846808845F2103188422CD04FF477
:101A90005A4003F0FDFD03F037FA474988804FF4C0
:101AA0005B4003F0F5FD03F02FFA00E01CE0424933
:101AB0008880084680884FF6FF7101EA00203E4981
:101AC00088804FF45C4003F0E3FD03F01DFA3A49CF
:101AD000898808433849888008468088B0F5004FD7
:101AE00002D145F2105088803348808849F2413154
:101AF00088420BD03048808845F21031884205D0AA
:101B00002D48808845F2105188421DD1294800682F
:101B100020F00F004FF02041C1F81C010846D0F81A
:101B20001C0120F47060C1F81C010846D0F81C01AB
:101B300040F00300C1F81C010846D0F81C0140F435
:101B40000070C1F81C0128E01B48808846F604019B
:101B5000884205D0184880884CF2055188421CD133
:101B60001448006820F00F004FF02041C1F81C011C
:101B70000846D0F81C0120F47060C1F81C0108462A
:101B8000D0F81C0140F00A00C1F81C010846D0F84A
:101B90001C0140F44060C1F81C010FE030380240E5
:101BA00000040240000C02400010024000140240F9
:101BB000001802401C0100A0600A0020FE48818835
:101BC000FEA0FEF7B1FBFC48808849F24131884213
:101BD0007ED1CF2003F05CFD002003F04DFD029884
:101BE000401C0290C12003F047FD302003F044FD6B
:101BF000ED2003F04DFD642003F03EFD032003F0D3
:101C00003BFD122003F038FD812003F035FDE82074
:101C100003F03EFD852003F02FFD102003F02CFD86
:101C20007A2003F029FDCB2003F032FD392003F0A8
:101C300023FD2C2003F020FD002003F01DFD3420A7
:101C400003F01AFD022003F017FDF72003F020FD3A
:101C5000202003F011FDEA2003F01AFD002003F01C
:101C60000BFD002003F008FDC02003F011FD1B2038
:101C700003F002FDC12003F00BFD012003F0FCFC8A
:101C8000C52003F005FD302003F0F6FC302003F002
:101C9000F3FCC72003F0FCFCB72003F0EDFC36207A
:101CA00003F0F6FC482003F0E7FC3A2003F0F0FCD8
:101CB000552003F0E1FCB12003F0EAFC002003F022
:101CC000DBFC1A2003F0D8FCB62003F0E1FC00E0B6
:101CD0009AE00A2003F0D0FCA22003F0CDFCF22011
:101CE00003F0D6FC002003F0C7FC262003F0D0FC54
:101CF000012003F0C1FCE02003F0CAFC0F2003F038
:101D0000BBFC2A2003F0B8FC282003F0B5FC082017
:101D100003F0B2FC0E2003F0AFFC082003F0ACFC93
:101D2000542003F0A9FCA92003F0A6FC432003F0F3
:101D3000A3FC0A2003F0A0FC0F2003F09DFC002070
:101D400003F09AFC002003F097FC002003F094FCC1
:101D5000002003F091FCE12003F09AFC002003F046
:101D60008BFC152003F088FC172003F085FC07206E
:101D700003F082FC112003F07FFC062003F07CFCC2
:101D80002B2003F079FC562003F076FC3C2003F076
:101D900073FC052003F070FC102003F06DFC0F2095
:101DA00003F06AFC3F2003F067FC3F2003F064FC73
:101DB0000F2003F061FC2B2003F06AFC002003F0ED
:101DC0005BFC002003F058FC012003F055FC3F2091
:101DD00003F052FC2A2003F05BFC002003F04CFCD3
:101DE000002003F049FC002003F046FCEF2003F044
:101DF00043FC112003F04CFC78200AF01DFD292043
:101E000003F046FC03F064B86B48808846F6040192
:101E100088427CD1112003F03BFC14200AF00CFD19
:101E2000D02003F035FC072003F026FC422003F00D
:101E300023FC1D2003F020FCD12003F029FC00200E
:101E400003F01AFC1A2003F017FC092003F014FC1D
:101E5000D22003F01DFC012003F00EFC222003F031
:101E60000BFCC02003F014FC102003F005FC3B2009
:101E700003F002FC002003F0FFFB022003F0FCFB58
:101E8000112003F0F9FBC52003F002FC032003F04E
:101E9000F3FBC82003F0FCFB002003F0EDFB252042
:101EA00003F0EAFB212003F0E7FB052003F0E4FB4D
:101EB000002003F0E1FB0A2003F0DEFB652003F0C5
:101EC000DBFB252003F0D8FB772003F0D5FB502067
:101ED00003F0D2FB0F2003F0CFFB002003F0CCFB7C
:101EE000F82003F0D5FB012003F0C6FBFE2003F031
:101EF000CFFB002003F0C0FB022003F0BDFB20203D
:101F000003F0C6FB362003F0C3FB082000E02CE002
:101F100003F0B2FB3A2003F0BBFB552003F0ACFB0F
:101F20002B2003F0B5FB002003F0A6FB002003F0FC
:101F3000A3FB012003F0A0FB3F2003F09DFB2A2020
:101F400003F0A6FB002003F097FB002003F094FBB6
:101F5000012003F091FBDF2003F08EFB78200AF0D4
:101F60006BFC292003F094FB4CE71348808845F272
:101F70001031884240F08487ED2003F089FB012076
:101F800003F07AFBFE2003F077FBEE2003F080FBEA
:101F9000DE2003F071FB212003F06EFBF12003F043
:101FA00077FB012003F068FBDF2003F071FB1020BA
:101FB00003F062FBC42009E0600A0020204C434487
:101FC0002049443A25780D0A0000000003F060FB28
:101FD0008F2003F051FBC62003F05AFB002003F0D2
:101FE0004BFBE22003F048FBE22003F045FBE2203C
:101FF00003F042FBBF2003F04BFBAA2003F03CFBA5
:10200000B02003F045FB0D2003F036FB002003F069
:1020100033FB0D2003F030FB002003F02DFB1120DB
:1020200003F02AFB002003F027FB192003F024FB18
:10203000002003F021FB212003F01EFB002003F011
:102040001BFB2D2003F018FB002003F015FB3D20A7
:1020500003F012FB002003F00FFB5D2003F00CFBEC
:10206000002003F009FB5D2003F006FB002003F0D5
:1020700003FBB12003F00CFB802003F0FDFA0020ED
:1020800003F0FAFA8B2003F0F7FA002003F0F4FAD9
:10209000962003F0F1FA002003F0EEFAB22003F0EC
:1020A000F7FA002003F0E8FA002003F0E5FA022036
:1020B00003F0E2FA002003F0DFFA032003F0DCFA79
:1020C000002003F0D9FAB32003F0E2FA002003F075
:1020D000D3FA002003F0D0FA002003F0CDFA00205C
:1020E00003F0CAFA002003F0C7FA002003F0C4FA94
:1020F000002003F0C1FA002003F0BEFA002003F034
:10210000BBFA002003F0B8FA002003F0B5FA002073
:1021100003F0B2FA002003F0AFFA002003F0ACFAAB
:10212000002003F0A9FA002003F0A6FA002003F033
:10213000A3FA002003F0A0FA002003F09DFA00208B
:1021400003F09AFA002003F097FA002003F094FAC3
:10215000002003F091FA002003F08EFAB42003F07F
:1021600097FA8B2003F088FA002003F085FA962076
:1021700003F082FA002003F07FFAA12003F07CFA3A
:10218000002003F079FAB52003F082FA022003F070
:1021900073FA002003F070FA032003F06DFA0020B8
:1021A00003F06AFA042003F067FA002003F064FAEF
:1021B000B62003F06DFA002003F05EFA002003F071
:1021C0005BFAB72003F064FA002003F055FA002010
:1021D00003F052FA3F2003F04FFA002003F04CFACC
:1021E0005E2003F049FA002003F046FA642003F071
:1021F00043FA002003F040FA8C2003F03DFA00205F
:1022000003F03AFAAC2003F037FA002003F034FA76
:10221000DC2003F031FA002003F02EFA702003F0E6
:102220002BFA002003F028FA902003F025FA002072
:1022300003F022FAEB2003F01FFA002003F01CFA4F
:10224000DC2003F019FA002003F016FAB82003F09E
:102250001FFA002003F010FA002003F00DFA00200E
:1022600003F00AFA002003F007FA002003F004FA52
:10227000002003F001FA002003F0FEF9002003F033
:10228000FBF9BA2003F004FA242003F0F5F900204A
:1022900003F0F2F9002003F0EFF9002003F0ECF96D
:1022A000C12003F0F5F9202003F0E6F9002003F047
:1022B000E3F9542003F0E0F9002003F0DDF9FF20FA
:1022C00003F0DAF9002003F0D7F9C22003F0E0F9B7
:1022D0000A2003F0D1F9002003F0CEF9042003F026
:1022E000CBF9002003F0C8F9C32003F0D1F93C205A
:1022F00003F0C2F9002003F0BFF93A2003F0BCF963
:10230000002003F0B9F9392003F0B6F9002003F0FA
:10231000B3F9372003F0B0F9002003F0ADF93C2009
:1023200003F0AAF9002003F0A7F9362003F0A4F97E
:10233000002003F0A1F9322003F09EF9002003F001
:102340009BF92F2003F098F9002003F095F92C2039
:1023500003F092F9002003F08FF9292003F08CF9A3
:10236000002003F089F9262003F086F9002003F00D
:1023700083F9242003F080F9002003F07DF9242064
:1023800003F07AF9002003F077F9232003F074F9C1
:10239000002003F071F93C2003F06EF9002003F0F7
:1023A0006BF9362003F068F9002003F065F932205C
:1023B00003F062F9002003F05FF92F2003F05CF9CD
:1023C000002003F059F92C2003F056F9002003F007
:1023D00053F9292003F050F9002003F04DF926208D
:1023E00003F04AF9002003F047F9242003F044F9F0
:1023F000002003F041F9242003F03EF9002003F00F
:102400003BF9232003F038F9002003F035F9C4200C
:1024100003F03EF9622003F02FF9002003F02CF9BD
:10242000052003F029F9002003F026F9842003F0A9
:1024300023F9002003F020F9F02003F01DF900201B
:1024400003F01AF9182003F017F9002003F014F92B
:10245000A42003F011F9002003F00EF9182003F076
:102460000BF9002003F008F9502003F005F90020D3
:1024700003F002F90C2003F0FFF8002003F0FCF851
:10248000172003F0F9F8002003F0F6F8952003F088
:10249000F3F8002003F0F0F8F32003F0EDF800204B
:1024A00003F0EAF8E62003F0E7F8002003F0E4F890
:1024B000C52003F0EDF8322003F0DEF8002003F031
:1024C000DBF8442003F0D8F8002003F0D5F86520AD
:1024D00003F0D2F8002003F0CFF8762003F0CCF818
:1024E000002003F0C9F8882003F0C6F8002003F0AC
:1024F000C3F8C62003F0CCF8202003F0BDF800207C
:1025000003F0BAF8172003F0B7F8002003F0B4F88E
:10251000012003F0B1F8002003F0AEF8C72003F06B
:10252000B7F8002003F0A8F8002003F0A5F8002079
:1025300003F0A2F8002003F09FF8C82003F0A8F8E9
:10254000002003F099F8002003F096F8002003F033
:1025500093F8002003F090F8C92003F099F80020C8
:1025600003F08AF8002003F087F8002003F084F8D5
:10257000002003F081F8002003F07EF8002003F033
:102580007BF8002003F078F8002003F075F80020B5
:1025900003F072F8002003F06FF8002003F06CF8ED
:1025A000002003F069F8002003F066F8002003F033
:1025B00063F8002003F060F8002003F05DF8E020ED
:1025C00003F066F8162003F057F8002003F054F8E3
:1025D0001C2003F051F8002003F04EF8212003F0F6
:1025E0004BF8002003F048F8362003F045F80020AF
:1025F00003F042F8462003F03FF8002003F03CF8D7
:10260000522003F039F8002003F036F8642003F07C
:1026100033F8002003F030F87A2003F02DF8002082
:1026200003F02AF88B2003F027F8002003F024F8A9
:10263000992003F021F8002003F01EF8A82003F0F1
:102640001BF8002003F018F8B92003F015F800205B
:1026500003F012F8C42003F00FF8002003F00CF888
:10266000CA2003F009F8002003F006F8D22003F096
:1026700003F8002003F000F8D92002F0FDFF00204D
:1026800002F0FAFFE02002F0F7FF002002F0F4FF72
:10269000F32002F0F1FF002002F0EEFFE12002F053
:1026A000F7FF162002F0E8FF002002F0E5FF1C20F3
:1026B00002F0E2FF002002F0DFFF222002F0DCFF48
:1026C000002002F0D9FF362002F0D6FF002002F0F1
:1026D000D3FF452002F0D0FF002002F0CDFF5220B2
:1026E00002F0CAFF002002F0C7FF642002F0C4FF1E
:1026F000002002F0C1FF7A2002F0BEFF002002F0AD
:10270000BBFF8B2002F0B8FF002002F0B5FF99203C
:1027100002F0B2FF002002F0AFFFA82002F0ACFFF1
:10272000002002F0A9FFB92002F0A6FF002002F06D
:10273000A3FFC42002F0A0FF002002F09DFFCA20EA
:1027400002F09AFF002002F097FFD22002F094FFDF
:10275000002002F091FFD82002F08EFF002002F04E
:102760008BFFE02002F088FF002002F085FFF320BD
:1027700002F082FF002002F07FFFE22002F088FFDB
:10278000052002F079FF002002F076FF0B2002F016
:1027900073FF002002F070FF1B2002F06DFF00208D
:1027A00002F06AFF342002F067FF002002F064FFAD
:1027B000442002F061FF002002F05EFF4F2002F093
:1027C0005BFF002002F058FF612002F055FF00205F
:1027D00002F052FF792002F04FFF002002F04CFF80
:1027E000882002F049FF002002F046FF972002F007
:1027F00043FF002002F040FFA62002F03DFF002032
:1028000002F03AFFB72002F037FF002002F034FF59
:10281000C22002F031FF002002F02EFFC72002F09C
:102820002BFF002002F028FFD12002F025FF00201E
:1028300002F022FFD62002F01FFF002002F01CFF52
:10284000DD2002F019FF002002F016FFF32002F055
:1028500013FF002002F010FFE32002F019FF052013
:1028600002F00AFF002002F007FF0A2002F004FF36
:10287000002002F001FF1C2002F0FEFE002002F00A
:10288000FBFE332002F0F8FE002002F0F5FE4420AB
:1028900002F0F2FE002002F0EFFE502002F0ECFE0B
:1028A000002002F0E9FE622002F0E6FE002002F0C5
:1028B000E3FE782002F0E0FE002002F0DDFE88203A
:1028C00002F0DAFE002002F0D7FE972002F0D4FEDC
:1028D000002002F0D1FEA62002F0CEFE002002F081
:1028E000CBFEB72002F0C8FE002002F0C5FEC220D9
:1028F00002F0C2FE002002F0BFFEC72002F0BCFEC4
:10290000002002F0B9FED12002F0B6FE002002F055
:10291000B3FED52002F0B0FE002002F0ADFEDD20B7
:1029200002F0AAFE002002F0A7FEF32002F0A4FEAF
:10293000002002F0A1FEE42002F0AAFE012002F035
:102940009BFE002002F098FE012002F095FE002080
:1029500002F092FE022002F08FFE002002F08CFEB8
:102960002A2002F089FE002002F086FE3C2002F0C0
:1029700083FE002002F080FE4B2002F07DFE00204E
:1029800002F07AFE5D2002F077FE002002F074FE75
:10299000742002F071FE002002F06EFE842002F02E
:1029A0006BFE002002F068FE932002F065FE00201E
:1029B00002F062FEA22002F05FFE002002F05CFE48
:1029C000B32002F059FE002002F056FEBE2002F0B5
:1029D00053FE002002F050FEC42002F04DFE002005
:1029E00002F04AFECD2002F047FE002002F044FE35
:1029F000D32002F041FE002002F03EFEDD2002F076
:102A00003BFE002002F038FEF32002F035FE0020ED
:102A100002F032FEE52002F03BFE002002F02CFE28
:102A2000002002F029FE002002F026FE002002F025
:102A300023FE022002F020FE002002F01DFE2920CD
:102A400002F01AFE002002F017FE3C2002F014FEF5
:102A5000002002F011FE4B2002F00EFE002002F0DA
:102A60000BFE5D2002F008FE002002F005FE74203F
:102A700002F002FE002002F0FFFD842002F0FCFDC7
:102A8000002002F0F9FD932002F0F6FD002002F094
:102A9000F3FDA22002F0F0FD002002F0EDFDB320D6
:102AA00002F0EAFD002002F0E7FDBE2002F0E4FDA6
:102AB000002002F0E1FDC42002F0DEFD002002F063
:102AC000DBFDCD2002F0D8FD002002F0D5FDD320A3
:102AD00002F0D2FD002002F0CFFDDC2002F0CCFDA0
:102AE000002002F0C9FDF32002F0C6FD002002F034
:102AF000C3FDE62002F0CCFD112002F0BDFD002058
:102B000002F0BAFD342002F0B7FD002002F0B4FD5F
:102B1000562002F0B1FD002002F0AEFD762002F05A
:102B2000ABFD002002F0A8FD772002F0A5FD0020FB
:102B300002F0A2FD662002F09FFD002002F09CFD45
:102B4000882002F099FD002002F096FD992002F005
:102B500093FD002002F090FDBB2002F08DFD0020CF
:102B600002F08AFD992002F087FD002002F084FD2A
:102B7000662002F081FD002002F07EFD552002F06B
:102B80007BFD002002F078FD552002F075FD00204D
:102B900002F072FD452002F06FFD002002F06CFD96
:102BA000432002F069FD002002F066FD442002F09F
:102BB00063FD002002F060FDE72002F069FD322095
:102BC00002F05AFD002002F057FD552002F054FD9E
:102BD000002002F051FD762002F04EFD002002F0B0
:102BE0004BFD662002F048FD002002F045FD672005
:102BF00002F042FD002002F03FFD672002F03CFDA4
:102C0000002002F039FD872002F036FD002002F09E
:102C100033FD992002F030FD002002F02DFDBB2095
:102C200002F02AFD002002F027FD992002F024FD89
:102C3000002002F021FD772002F01EFD002002F0AE
:102C40001BFD442002F018FD002002F015FD562067
:102C500002F012FD002002F00FFD232002F00CFD17
:102C6000002002F009FD332002F006FD002002F0F2
:102C700003FD452002F000FD002002F0FDFCE820ED
:102C800002F006FD002002F0F7FC002002F0F4FC48
:102C9000992002F0F1FC002002F0EEFC872002F007
:102CA000EBFC002002F0E8FC882002F0E5FC0020AC
:102CB00002F0E2FC772002F0DFFC002002F0DCFCF6
:102CC000662002F0D9FC002002F0D6FC882002F039
:102CD000D3FC002002F0D0FCAA2002F0CDFC0020A2
:102CE00002F0CAFCBB2002F0C7FC002002F0C4FCCA
:102CF000992002F0C1FC002002F0BEFC662002F028
:102D0000BBFC002002F0B8FC552002F0B5FC00200E
:102D100002F0B2FC552002F0AFFC002002F0ACFC47
:102D2000442002F0A9FC002002F0A6FC442002F09E
:102D3000A3FC002002F0A0FC552002F09DFC002026
:102D400002F09AFCE92002F0A3FCAA2002F094FC15
:102D5000002002F091FC002002F08EFC002002F026
:102D60008BFC002002F094FCAA2002F085FCCF200E
:102D700002F08EFC002002F07FFC002002F07CFCC0
:102D8000002002F079FC002002F076FC002002F026
:102D900073FC002002F070FC002002F06DFC0020AB
:102DA00002F06AFC002002F067FC002002F064FCE4
:102DB000002002F061FC002002F05EFC002002F026
:102DC0005BFC002002F058FC002002F055FC0020C3
:102DD00002F052FC002002F04FFCF02002F058FC00
:102DE000002002F049FC502002F046FC002002F0D6
:102DF00043FC002002F040FC002002F03DFCF320E8
:102E000002F046FC002002F037FCF92002F040FC02
:102E1000062002F031FC102002F02EFC292002F0E6
:102E20002BFC002002F028FC3A2002F031FC552057
:102E300002F022FC112002F02BFC642009F0FCFCC3
:102E4000292002F025FC352002F022FC002002F0AF
:102E500013FC512002F01CFCFF2002F00DFC53205B
:102E600002F016FC2C2002F007FC552002F010FCAA
:102E7000822002F001FC2C2002F00AFC02F028B8AB
:102E8000FE48808845F2105188427DD155214FF48B
:102E9000704002F013FCAA214FF2010002F00EFC78
:102EA00052214FF2020002F009FC08214FF2030008
:102EB00002F004FC01214FF2040002F0FFFB0D219F
:102EC0004FF4304002F0FAFB0D214BF2010002F00A
:102ED000F5FB0D214BF2020002F0F0FB34214FF420
:102EE000364002F0EBFB34214BF2016002F0E6FBCE
:102EF00034214BF2026002F0E1FB0D214FF431402E
:102F000002F0DCFB0D214BF2011002F0D7FB0D218A
:102F10004BF2021002F0D2FB34214FF4374002F0A2
:102F2000CDFB34214BF2017002F0C8FB34214BF28F
:102F3000027002F0C3FB00214FF4324002F0BEFBEE
:102F400000214BF2012002F0B9FB00214BF20220DC
:102F500002F0B4FB24214FF4384002F0AFFB2421EF
:102F60004BF6010002F0AAFB24214BF6020002F00E
:102F7000A5FB01214FF43F4002F0A0FB0F214FF4CD
:102F8000334002F09BFB00E0FDE30F214BF20130E8
:102F900002F094FB0F214BF2023002F08FFB342140
:102FA0004FF4394002F08AFB34214BF6011002F055
:102FB00085FB34214BF6021002F080FB08214FF410
:102FC000354002F07BFB08214BF2015002F076FB0A
:102FD00008214BF2025002F071FB03214FF44240F2
:102FE00002F06CFB24214FF43A4002F067FB2421ED
:102FF0004BF6012002F062FB24214BF6022002F086
:103000005DFB00214FF43C4002F058FB78214BF669
:10301000014002F053FB00214BF6024002F04EFB50
:1030200000214FF43D4002F049FB78214BF601505E
:1030300002F044FB00214BF6025002F03FFB00215E
:103040004FF43E4002F03AFB64214BF6016002F07F
:1030500035FB00214FF4514002F030FB33214DF29B
:10306000011002F02BFB00214DF2021002F026FBB2
:1030700034214DF2031002F021FB00214DF2041027
:1030800002F01CFB3A214DF2051002F017FB002163
:103090004DF2061002F012FB4A214DF2071002F029
:1030A0000DFB00214DF2081002F008FB5C214DF2EF
:1030B000091002F003FB00214DF20A1002F0FEFAA3
:1030C00081214DF20B1002F0F9FA00214DF20C10A3
:1030D00002F0F4FAA6214DF20D1002F0EFFA0021F1
:1030E0004DF20E1002F0EAFAE5214DF20F1002F057
:1030F000E5FA01214DF2101002F0E0FA13214DF231
:10310000111002F0DBFA01214DF2121002F0D6FA92
:1031100054214DF2131002F0D1FA01214DF2141096
:1031200002F0CCFA82214DF2151002F0C7FA01210B
:103130004DF2161002F0C2FACA214DF2171002F039
:10314000BDFA02214DF2181002F0B8FA00214DF23A
:10315000191002F0B3FA02214DF21A1002F0AEFA81
:1031600001214DF21B1002F0A9FA02214DF21C10B0
:1031700002F0A4FA34214DF21D1002F09FFA022150
:103180004DF21E1002F09AFA67214DF21F1002F064
:1031900095FA02214DF2201002F090FA84214DF2AE
:1031A000211002F08BFA02214DF2221002F086FA71
:1031B000A4214DF2231002F081FA02214DF22410D5
:1031C00002F07CFAB7214DF2251002F077FA0221C5
:1031D0004DF2261002F072FACF214DF2271002F0C4
:1031E0006DFA02214DF2281002F068FADE214DF24C
:1031F000291002F063FA02214DF22A1002F05EFA61
:10320000F2214DF22B1002F059FA02214DF22C104E
:1032100002F054FAFE214DF22D1002F04FFA032174
:103220004DF22E1002F04AFA10214DF22F1002F04A
:1032300045FA03214DF2301002F040FA33214DF2ED
:10324000311002F03BFA03214DF2321002F036FA4F
:103250006D214DF2331002F031FA00214FF452404B
:1032600002F02CFA33214DF2012002F027FA00215E
:103270004DF2022002F022FA342101E0600A00201F
:103280004DF2032002F01AFA00214DF2042002F060
:1032900015FA3A214DF2052002F010FA00214DF204
:1032A000062002F00BFA4A214DF2072002F006FA3E
:1032B00000214DF2082002F001FA5C214DF20920B4
:1032C00002F0FCF900214DF20A2002F0F7F9812109
:1032D0004DF20B2002F0F2F900214DF20C2002F029
:1032E000EDF9A6214DF20D2002F0E8F900214DF292
:1032F0000E2002F0E3F9E5214DF20F2002F0DEF995
:1033000001214DF2102002F0D9F913214DF21120C4
:1033100002F0D4F901214DF2122002F0CFF954212C
:103320004DF2132002F0CAF901214DF2142002F0EF
:10333000C5F982214DF2152002F0C0F901214DF2AC
:10334000162002F0BBF9CA214DF2172002F0B6F99F
:1033500002214DF2182002F0B1F900214DF219209E
:1033600002F0ACF902214DF21A2002F0A7F9012176
:103370004DF21B2002F0A2F902214DF21C2002F0B6
:103380009DF934214DF21D2002F098F902214DF2F1
:103390001E2002F093F967214DF21F2002F08EF9F2
:1033A00002214DF2202002F089F984214DF22120E2
:1033B00002F084F902214DF2222002F07FF9A421CB
:1033C0004DF2232002F07AF902214DF2242002F07E
:1033D00075F9B7214DF2252002F070F902214DF266
:1033E000262002F06BF9CF214DF2272002F066F97A
:1033F00002214DF2282002F061F9DE214DF2292050
:1034000002F05CF902214DF22A2002F057F9F22174
:103410004DF22B2002F052F902214DF22C2002F045
:103420004DF9FE214DF22D2002F048F903214DF215
:103430002E2002F043F910214DF22F2002F03EF928
:1034400003214DF2302002F039F933214DF23120C1
:1034500002F034F903214DF2322002F02FF96D21F0
:103460004DF2332002F02AF900214FF4534002F0CC
:1034700025F933214DF2013002F020F900214DF2FF
:10348000023002F01BF934214DF2033002F016F93C
:1034900000214DF2043002F011F93A214DF20530CD
:1034A00002F00CF900214DF2063002F007F94A2132
:1034B0004DF2073002F002F900214DF2083002F01F
:1034C000FDF85C214DF2093002F0F8F800214DF2D0
:1034D0000A3002F0F3F881214DF20B3002F0EEF8E1
:1034E00000214DF20C3002F0E9F8A6214DF20D302A
:1034F00002F0E4F800214DF20E3002F0DFF8E52191
:103500004DF20F3002F0DAF801214DF2103002F0E6
:10351000D5F813214DF2113002F0D0F801214DF20F
:10352000123002F0CBF854214DF2133002F0C6F8FD
:1035300001214DF2143002F0C1F882214DF2153014
:1035400002F0BCF801214DF2163002F0B7F8CA21A2
:103550004DF2173002F0B2F802214DF2183002F0AD
:10356000ADF800214DF2193002F0A8F802214DF219
:103570001A3002F0A3F801214DF21B3002F09EF840
:1035800002214DF21C3002F099F834214DF21D3029
:1035900002F094F802214DF21E3002F08FF86721FC
:1035A0004DF21F3002F08AF802214DF2203002F075
:1035B00085F884214DF2213002F080F802214DF28D
:1035C000223002F07BF8A4214DF2233002F076F88D
:1035D00002214DF2243002F071F8B7214DF225306E
:1035E00002F06CF802214DF2263002F067F8CF218C
:1035F0004DF2273002F062F802214DF2283002F03D
:103600005DF8DE214DF2293002F058F802214DF22A
:103610002A3002F053F8F2214DF22B3002F04EF82E
:1036200002214DF22C3002F049F8FE214DF22D30EE
:1036300002F044F803214DF22E3002F03FF8102141
:103640004DF22F3002F03AF803214DF2303002F003
:1036500035F833214DF2313002F030F803214DF2CC
:10366000323002F02BF86D214DF2333002F026F8A3
:1036700000214FF4544002F021F833214DF2014073
:1036800002F01CF800214DF2024002F017F834213C
:103690004DF2034002F012F800214DF2044002F016
:1036A0000DF83A214DF2054002F008F800214DF2E4
:1036B000064002F003F84A214DF2074001F0FEFFF8
:1036C00000214DF2084001F0F9FF5C214DF2094064
:1036D00001F0F4FF00214DF20A4001F0EFFF8121DB
:1036E0004DF20B4001F0EAFF00214DF20C4001F0D9
:1036F000E5FFA6214DF20D4001F0E0FF00214DF263
:103700000E4001F0DBFFE5214DF20F4001F0D6FF46
:1037100001214DF2104001F0D1FF13214DF2114073
:1037200001F0CCFF01214DF2124001F0C7FF5421FE
:103730004DF2134001F0C2FF01214DF2144001F09F
:10374000BDFF82214DF2154001F0B8FF01214DF27D
:10375000164001F0B3FFCA214DF2174001F0AEFF51
:1037600002214DF2184001F0A9FF00214DF219404D
:1037700001F0A4FF02214DF21A4001F09FFF012148
:103780004DF21B4000E006E301F098FF02214DF2EC
:103790001C4001F093FF34214DF21D4001F08EFFDB
:1037A00002214DF21E4001F089FF67214DF21F40BA
:1037B00001F084FF02214DF2204001F07FFF8421BF
:1037C0004DF2214001F07AFF02214DF2224001F03A
:1037D00075FFA4214DF2234001F070FF02214DF24C
:1037E000244001F06BFFB7214DF2254001F066FF48
:1037F00002214DF2264001F061FFCF214DF227401A
:1038000001F05CFF02214DF2284001F057FFDE215C
:103810004DF2294001F052FF02214DF22A4001F001
:103820004DFFF2214DF22B4001F048FF02214DF2F5
:103830002C4001F043FFFE214DF22D4001F03EFFF0
:1038400003214DF22E4001F039FF10214DF22F409F
:1038500001F034FF03214DF2304001F02FFF3321FE
:103860004DF2314001F02AFF03214DF2324001F0C8
:1038700025FF6D214DF2334001F020FF00214FF470
:10388000554001F01BFF33214DF2015001F016FFAE
:1038900000214DF2025001F011FF34214DF203508E
:1038A00001F00CFF00214DF2045001F007FF3A2116
:1038B0004DF2055001F002FF00214DF2065001F0DB
:1038C000FDFE4A214DF2075001F0F8FE00214DF2B5
:1038D000085001F0F3FE5C214DF2095001F0EEFEBC
:1038E00000214DF20A5001F0E9FE81214DF20B500A
:1038F00001F0E4FE00214DF20C5001F0DFFEA621A4
:103900004DF20D5001F0DAFE00214DF20E5001F0A3
:10391000D5FEE5214DF20F5001F0D0FE01214DF210
:10392000105001F0CBFE13214DF2115001F0C6FEF4
:1039300001214DF2125001F0C1FE54214DF21350FD
:1039400001F0BCFE01214DF2145001F0B7FE8221BE
:103950004DF2155001F0B2FE01214DF2165001F06A
:10396000ADFECA214DF2175001F0A8FE02214DF222
:10397000185001F0A3FE00214DF2195001F09EFEF7
:1039800002214DF21A5001F099FE01214DF21B5017
:1039900001F094FE02214DF21C5001F08FFE342103
:1039A0004DF21D5001F08AFE02214DF21E5001F031
:1039B00085FE67214DF21F5001F080FE02214DF27D
:1039C000205001F07BFE84214DF2215001F076FE63
:1039D00002214DF2225001F071FEA4214DF223503C
:1039E00001F06CFE02214DF2245001F067FEB72178
:1039F0004DF2255001F062FE02214DF2265001F0F9
:103A00005DFECF214DF2275001F058FE02214DF20C
:103A1000285001F053FEDE214DF2295001F04EFEF8
:103A200002214DF22A5001F049FEF2214DF22B50B5
:103A300001F044FE02214DF22C5001F03FFEFE2128
:103A40004DF22D5001F03AFE03214DF22E5001F0BF
:103A500035FE10214DF22F5001F030FE03214DF2C2
:103A6000305001F02BFE33214DF2315001F026FE93
:103A700003214DF2325001F021FE6D214DF2335001
:103A800001F01CFE00214FF4564001F017FE3321D7
:103A90004DF2016001F012FE00214DF2026001F0D2
:103AA0000DFE34214DF2036001F008FE00214DF2BD
:103AB000046001F003FE3A214DF2056001F0FEFDC5
:103AC00000214DF2066001F0F9FD4A214DF2076038
:103AD00001F0F4FD00214DF2086001F0EFFD5C21E2
:103AE0004DF2096001F0EAFD00214DF20A6001F09B
:103AF000E5FD81214DF20B6001F0E0FD00214DF26A
:103B00000C6001F0DBFDA6214DF20D6001F0D6FD49
:103B100000214DF20E6001F0D1FDE5214DF20F6064
:103B200001F0CCFD01214DF2106001F0C7FD132121
:103B30004DF2116001F0C2FD01214DF2126001F061
:103B4000BDFD54214DF2136001F0B8FD01214DF28D
:103B5000146001F0B3FD82214DF2156001F0AEFD5D
:103B600001214DF2166001F0A9FDCA214DF2176046
:103B700001F0A4FD02214DF2186001F09FFD00212B
:103B80004DF2196001F09AFD02214DF21A6001F028
:103B900095FD01214DF21B6001F090FD02214DF2D7
:103BA0001C6001F08BFD34214DF21D6001F086FD9B
:103BB00002214DF21E6001F081FD67214DF21F6070
:103BC00001F07CFD02214DF2206001F077FD84219F
:103BD0004DF2216001F072FD02214DF2226001F0F0
:103BE0006DFDA4214DF2236001F068FD02214DF22C
:103BF000246001F063FDB7214DF2256001F05EFD08
:103C000002214DF2266001F059FDCF214DF22760CF
:103C100001F054FD02214DF2286001F04FFDDE213C
:103C20004DF2296001F04AFD02214DF22A6001F0B7
:103C300045FDF2214DF22B6001F040FD02214DF2D5
:103C40002C6001F03BFDFE214DF22D6001F036FDB0
:103C500003214DF22E6001F031FD10214DF22F6055
:103C600001F02CFD03214DF2306001F027FD3321DE
:103C70004DF2316001F022FD03214DF2326001F07E
:103C80001DFD6D214DF2336001F018FD55214FF4FB
:103C9000704001F013FDAA214FF2010001F00EFD6A
:103CA00052214FF2020001F009FD08214FF20300FA
:103CB00001F004FD00214FF2040001F0FFFCCC21D3
:103CC0004FF4314001F0FAFC00214BF2011001F0F9
:103CD000F5FC05214FF4364001F0F0FC70214FF463
:103CE000374001F0EBFC70214BF2017001F0E6FC73
:103CF00001214FF4384001F0E1FC03214BF60100B3
:103D000001F0DCFC03214BF6020001F0D7FC03219B
:103D10004BF6030001F0D2FC02214FF43C4001F0CD
:103D2000CDFC00214BF6014001F0C8FC00214BF610
:103D3000024001F0C3FCD0214FF4494001F0BEFC29
:103D400002214CF6011001F0B9FC50214CF6021092
:103D500001F0B4FC50214CF6031001F0AFFC5021EF
:103D60004CF6041001F0AAFC00214FF4545001F06D
:103D7000A5FC55214FF4685001F0A0FC4FF4885089
:103D800001F086FC782008F073FD4FF4245001F018
:103D90007FFC01F09DB8FE48808849F225318842B9
:103DA0007ED147F6F001E52001F088FC4FF48071E8
:103DB000012001F083FC4FF4E061022001F07EFC61
:103DC00041F23001032001F079FC0021042001F0D0
:103DD00075FC40F20221082001F070FC002109204E
:103DE00001F06CFC00210A2001F068FC00210C208D
:103DF00001F064FC00210D2001F060FC00210F2087
:103E000001F05CFC0021102001F058FC072111207A
:103E100001F054FC0021122001F050FC002113207D
:103E200001F04CFC0021072001F048FC41F29061B8
:103E3000102001F043FC40F22721112001F03EFC4C
:103E40009D21122001F03AFC4FF4C851132001F0DB
:103E500035FC2521292001F031FC0D212B2001F01A
:103E60002DFC0721302001F029FC40F203313120E4
:103E700001F024FC0321322001F020FC40F2062155
:103E8000352001F01BFC0821362001F017FC40F220
:103E90000641372001F012FC4FF44171382000E058
:103EA00057E001F00BFC0721392001F007FC40F23C
:103EB00002613C2001F002FC08213D2001F0FEFBE4
:103EC0000021502001F0FAFBEF21512001F0F6FB18
:103ED0000021522001F0F2FB40F23F11532001F08B
:103EE000EDFB4FF42741602001F0E8FB0121612048
:103EF00001F0E4FB00216A2001F0E0FB00218020BA
:103F000001F0DCFB0021812001F0D8FB00218220A0
:103F100001F0D4FB0021832001F0D0FB002184209C
:103F200001F0CCFB0021852001F0C8FB102190207E
:103F300001F0C4FB4FF4C061922001F0BFFB40F2DE
:103F40003311072001F0BAFB2221002001F0B6FB5B
:103F50001FE78F48808849F2283188427ED141F29C
:103F60008F01EC2001F0AAFB41F23421EF2001F097
:103F7000A5FB4FF48071012001F0A0FB4FF4E0613C
:103F8000022001F09BFB41F23001032001F096FB7F
:103F90000021042001F092FB40F20221082001F0F0
:103FA0008DFB0021092001F089FB00210A2001F08E
:103FB00085FB01210C2001F081FB00210D2001F087
:103FC0007DFB00210F2001F079FB0021102001F082
:103FD00075FB0721112001F071FB0021122001F077
:103FE0006DFB0021132001F069FB0121072001F086
:103FF00065FB322008F020FC41F29041102001F0D6
:104000005DFB40F22721112001F058FB322008F01F
:1040100013FC8A21122001F051FB322008F00CFC25
:104020004FF4D051132001F049FB0621292001F063
:1040300045FB0D212B2001F041FB322008F0FCFB59
:104040000021202001F03AFB0021212001F036FB65
:10405000322008F0F1FB0021302000E074E001F094
:104060002DFB40F20461312001F028FB40F20531C4
:10407000322001F023FB0021352001F01FFB40F628
:104080000941362001F01AFB4FF40171372001F08D
:1040900015FB40F20131382001F010FB40F20771AE
:1040A000392001F00BFB00213C2001F007FB40F61A
:1040B0000A213D2001F002FB322008F0BDFB002167
:1040C000502001F0FBFAEF21512001F0F7FA002116
:1040D000522001F0F3FA40F23F11532001F0EEFAC2
:1040E0004FF42741602001F0E9FA0121612001F03D
:1040F000E5FA00216A2001F0E1FA0021802001F0B8
:10410000DDFA0021812001F0D9FA0021822001F09E
:10411000D5FA0021832001F0D1FA0021842001F09A
:10412000CDFA0021852001F0C9FA1021902001F07C
:10413000C5FA4FF4C061922001F0C0FA40F2331189
:10414000072001F0BBFA24E61148808849F22031AB
:1041500088427DD10021084601F0B0FA4FF4807109
:10416000012001F0ABFA4FF4E061022001F0A6FA61
:1041700041F23001032001F0A1FA0021042001F0F6
:104180009DFA40F20221082001F098FA002101E096
:10419000600A0020092001F091FA00210A2001F0B4
:1041A0008DFA01210C2001F089FA00210D2001F087
:1041B00085FA00210F2001F081FA322008F03CFB43
:1041C00040F20111072001F079FA322008F034FBA7
:1041D0004FF48651102001F071FA0721112001F0EF
:1041E0006DFA4FF48871122001F068FA4FF43061D3
:1041F000132001F063FA0021292001F05FFA44F254
:1042000010012B2001F05AFA0021502001F056FA3B
:10421000EF21512001F052FA0021522001F04EFA14
:1042200040F23F11532001F049FA4FF41C51602035
:1042300001F044FA0121612001F040FA00216A20D6
:1042400001F03CFA0021802001F038FA002100E062
:1042500031E0812001F032FA0021822001F02EFAB3
:104260000021832001F02AFA0021842001F026FA9F
:104270000021852001F022FA1021902001F01EFA81
:104280000021922001F01AFA0121932001F016FA80
:104290004FF48871952001F011FA0021972001F068
:1042A0000DFA0021982001F009FA40F2731107205D
:1042B00001F004FA6DE5FE48808849F23131884208
:1042C0007DD141F21401E72001F0F8F94FF480713B
:1042D000012001F0F3F94FF40071022001F0EEF932
:1042E00041F23801032001F0E9F940F202210820EF
:1042F00001F0E4F90021092001F0E0F900210A2091
:1043000001F0DCF900210C2001F0D8F900210D208A
:1043100001F0D4F900210F2001F0D0F90021102084
:1043200001F0CCF90721112001F0C8F90021122079
:1043300001F0C4F90021132001F0C0F9C82008F0F1
:104340007BFA41F29061102001F0B8F940F2272188
:10435000112001F0B3F9322008F06EFA0C2112207E
:1043600001F0ACF9322008F067FA4FF40061132035
:1043700001F0A4F91121292001F0A0F90B212B2033
:1043800001F09CF9322008F057FA0021202001F0BA
:1043900095F940F23F11212001F090F900213020E1
:1043A00001F08CF94FF48371312001F087F900217D
:1043B000322001F083F94FF40171352000E064E010
:1043C00001F07CF941F20A61362001F077F940F200
:1043D0000771372001F072F94FF48371382001F032
:1043E0006DF940F20771392001F068F940F202419D
:1043F0003C2001F063F940F60F413D2001F05EF9E9
:104400000021502001F05AF9EF21512001F056F916
:104410000021522001F052F940F23F11532001F0E7
:104420004DF94FF41C51602001F048F90121612041
:1044300001F044F900216A2001F040F900218020B8
:1044400001F03CF90021812001F038F9002182209F
:1044500001F034F90021832001F030F9002184209B
:1044600001F02CF90021852001F028F9102190207D
:1044700001F024F94FF4C061922001F01FF940F2DD
:104480003311072001F01AF983E48948808845F246
:10449000084188427ED14FF48071012001F00EF96D
:1044A0004FF4E061022001F009F941F230010320EC
:1044B00001F004F90021042001F000F940F2072185
:1044C000082001F0FBF80021092001F0F7F8002195
:1044D0000A2001F0F3F800210C2001F0EFF8002190
:1044E0000D2001F0EBF800210F2001F0E7F8142077
:1044F00008F0A2F941F2B061102001F0DFF80121CB
:10450000112001F0DBF80121172001F0D7F84FF45A
:104510009C71122001F0D2F84FF40061132001F0D9
:10452000CDF80921292001F0C9F809212A2001F03C
:10453000C5F80021A42001F0C1F80021502001F0AD
:10454000BDF8EF21512001F0B9F80021522001F00F
:10455000B5F840F23F11532001F0B0F84FF41C5170
:10456000602001F0ABF80121612001F0A7F80021E3
:104570006A2001F0A3F80021802001F09FF80021BB
:10458000812001F09BF80021822001F097F80021A2
:10459000832000E023E001F091F80021842001F065
:1045A0008DF80021852001F089F81321902001F079
:1045B00085F80021922001F081F80321932001F079
:1045C0007DF84FF48871952001F078F840F273116E
:1045D000072001F073F8322008F02EF9B8E43448CF
:1045E000808841F2055188427ED10021072001F0E8
:1045F00065F8322008F020F94FF48E71122001F096
:104600005DF80121A42001F059F80F21082001F0E4
:1046100055F808210A2001F051F808210D2001F079
:104620004DF840F20771302001F048F807213120A1
:1046300001F044F840F20361322001F03FF84FF4FA
:10464000E061332001F03AF840F20221342001F019
:1046500035F80221352001F031F841F60F7136208E
:1046600001F02CF840F20771372001F027F8002103
:10467000382001F023F80021392001F01FF840F222
:1046800007713A2001F01AF800213B2001F016F8DA
:1046900007213C2001F012F800213D2001F00EF826
:1046A000322008F0C9F80121072001F007F801E0E5
:1046B000600A00200121172001F000F8322008F0E4
:1046C000BBF84FF4BD51102000F0F8FF40F2172165
:1046D000112000F0F3FF4FF48F71122000F0EEFF75
:1046E0004FF47061132000E097E000F0E7FF002135
:1046F0002A2000F0E3FF0A21292000F0DFFF4FF419
:104700009F71122000F0DAFF0021502000F0D6FF48
:10471000EF21512000F0D2FF0021522000F0CEFF07
:1047200040F23F11532000F0C9FF4FF41C516020AC
:1047300000F0C4FF0121612000F0C0FF00216A20C9
:1047400000F0BCFF0021802000F0B8FF0021812094
:1047500000F0B4FF0021822000F0B0FF0021832090
:1047600000F0ACFF0021842000F0A8FF002185208C
:1047700000F0A4FF1321902000F0A0FF4FF440713F
:10478000922000F09BFF0521932000F097FF00216D
:10479000952000F093FF0021972000F08FFF00216B
:1047A000982000F08BFF4FF48071012000F086FF0D
:1047B0004FF4E061022000F081FF41F23801032054
:1047C00000F07CFF0021042000F078FF00210C2085
:1047D00000F074FF00210F2000F070FF0021202066
:1047E00000F06CFF0021212000F068FF212107204C
:1047F00000F064FF142008F01FF86121072000F08A
:104800005DFF142008F018F840F27311072000F043
:1048100055FF142008F010F85AE3FE4880884BF248
:10482000055188427ED10021084600F047FF002153
:10483000084600F043FF0021084600F03FFF00213A
:10484000084600F03BFF0121A42000F037FF1420B0
:1048500007F0F2FF4FF41C51602000F02FFF40F2F0
:104860000221082000F02AFF4FF40571302000F0EB
:1048700025FF43F21571312000F020FF40F2046162
:10488000322000F01BFF40F61661332000F016FFC7
:1048900042F21121342000F011FF4FF4A8513520CD
:1048A00000F00CFF48F20751362000F007FF41F2FC
:1048B0000741372000F002FF41F20341382000F0A9
:1048C000FDFE2021392000F0F9FE1A21902000F091
:1048D000F5FE0021102000F0F1FE0721112000F06C
:1048E000EDFE0021122000F0E9FE0021132000F06F
:1048F000E5FE142007F0A0FF4FF4E661102000F061
:10490000DDFE40F23711112000F0D8FE142007F030
:1049100093FF4FF4DC71122000F0D0FE142007F05A
:104920008BFF00E083E04FF47061132000F0C6FEBF
:1049300080212A2000F0C2FE4821292000F0BEFE7E
:10494000142007F079FF4FF48071012000F0B6FECB
:104950004FF4E061022000F0B1FE41F23801032083
:1049600000F0ACFE40F20221082000F0A7FE00217A
:104970000A2000F0A3FE00210C2000F09FFE002181
:104980000D2000F09BFE30210E2000F097FE00214C
:10499000502000F093FEEF21512000F08FFE002107
:1049A000522000F08BFE40F23F11532000F086FEB3
:1049B0004FF41C51602000F081FE0121612000F0C5
:1049C0007DFE00216A2000F079FE1121902000F088
:1049D00075FE4FF4C061922000F070FE40F202417B
:1049E000932000F06BFE0221942000F067FE14205B
:1049F00007F022FF0121072000F060FE142007F0DD
:104A00001BFF6121072000F059FE40F273110720BF
:104A100000F054FE0021202000F050FE0021212053
:104A200000F04CFE2221002000F048FE50E27948C0
:104A300080884CF2055188427ED10021084600F062
:104A40003DFE0021084600F039FE142007F0F4FE78
:104A50000021084600F032FE0021084600F02EFE3C
:104A60000021084600F02AFE0021084600F026FE3C
:104A70000121A42000F022FE142007F0DDFE4FF4F7
:104A80001C51602000F01AFE40F60601082000F0DC
:104A900015FE40F20371302000F010FE012131209C
:104AA00000F00CFE0421322000F008FE4FF481716A
:104AB000332000F003FE4FF44071342000F0FEFD7F
:104AC00040F20311352000F0F9FD1F21362000F0DF
:104AD000F5FD40F20371372000F0F0FD0121382090
:104AE00000F0ECFD0421392000F0E8FD15219020B4
:104AF00000F0E4FD4FF48261102000F0DFFD40F291
:104B00004721112000F0DAFD4FF4DE71122000F091
:104B1000D5FD4FF46061132000F0D0FD782007F040
:104B20008BFE4FF48071012000F0C8FD4FF400713E
:104B3000022000F0C3FD00E050E041F2300103200C
:104B400000F0BCFD08210A2000F0B8FD00210C2077
:104B500000F0B4FD20210E2000F0B0FD00210F2058
:104B600000F0ACFD0021202000F0A8FD0021212054
:104B700000F0A4FD3D212A2000F0A0FD142007F044
:104B80005BFE2D21292000F099FD0021502000F02E
:104B900095FD4DF2EF01512000F090FD00215220D3
:104BA00000F08CFD40F23F11532000F087FD002102
:104BB000612000F083FD00216A2000F07FFD4FF4AA
:104BC0004071922000F07AFD0521932000F076FDDF
:104BD0004FF48071072000F071FD79E10D48808865
:104BE00044F2315188427CD10121002000F066FD61
:104BF0000A2007F021FE41F22861102000F05EFD3E
:104C00000E21122000F05AFD40F63921132000F049
:104C100055FD01E0600A00200A2007F00DFE40214A
:104C2000112000F04BFD5021152000F047FD0A2017
:104C300007F002FE1E21122000F040FD0A2007F0BE
:104C4000FBFD4FF4B151102000F038FD42F6392140
:104C5000132000F033FD0A2007F0EEFD4FF48071C1
:104C6000012000F02BFD4FF44071022000F026FDE2
:104C700041F23801032000F021FD40F2022108201A
:104C800000F01CFD08210A2000F018FD0021302052
:104C900000F014FD40F20241312000F00FFD4FF40E
:104CA0008371322000F00AFD40F20351332000F0FE
:104CB00005FD4FF48271342000F000FD40F2013117
:104CC000352000F0FBFC40F20771362000F0F6FCC6
:104CD00040F20531372000F0F1FC4FF4027138202A
:104CE00000E040E000F0EAFC40F60B71392000F0F3
:104CF000E5FC0221412000F0E1FC4FF41C51602052
:104D000000F0DCFC0121612000F0D8FC4FF40471BC
:104D1000902000F0D3FC4FF48571922000F0CEFC7F
:104D20000421932000F0CAFC4FF48071A02000F011
:104D3000C5FC0121072000F0C1FC2121072000F063
:104D4000BDFC2321072000F0B9FC3321072000F02F
:104D5000B5FC40F23311072000F0B0FC0021A02088
:104D600000F0ACFCB4E06048808844F235518842E1
:104D7000F8D13021152000F0A1FC10219A2000F07C
:104D80009DFC2021112000F099FC43F228411020C5
:104D900000F094FC0221122000F090FC41F2380156
:104DA000132000F08BFC282007F046FD1221084656
:104DB00000F084FC282007F03FFD43F22041102042
:104DC00000F07CFC43F23801132000F077FC462011
:104DD00007F032FD0021302000F070FC40F202416B
:104DE000312000F06BFC40F20731322000F066FC0D
:104DF0004FF44171332000F061FC0421342000F0B5
:104E00005DFC40F20141352000F058FC40F2077192
:104E1000362000F053FC40F20531372000F04EFC04
:104E20004FF4C261382000F049FC4FF4C2613920D0
:104E300000F044FC4FF48071012000F03FFC4FF47F
:104E40004071022000F03AFC41F23001032000F0F2
:104E500035FC40F60801082000F030FC08210A204B
:104E600000F02CFC4FF41C51602000F027FC0121C5
:104E7000612000F023FC4FF49F71902000F01EFC95
:104E80004FF48071922000F019FC4FF48071932050
:104E900000F014FC4FF44051A02000F00FFC102152
:104EA000A32000F00BFC0121072000F007FC2121CA
:104EB000072000F003FC2321072000F0FFFB332133
:104EC000072000F0FBFB40F23311072000F0F6FB57
:104ED0000020FCF7BFFA0120044908604FF6FF707C
:104EE000FCF752FA0EBD0000600A0020BC8240426E
:104EF00010B50246012000E050430B00A1F101046F
:104F0000E1B2F9D110BD000008B503480088009057
:104F1000BDF8000008BD00008000006C3EB50446EE
:104F20000D46002002900190009055480088A04254
:104F300003DD53484088A84201DC00203EBD2946DD
:104F4000204600F001FA4E48808849F241318842FB
:104F50000BD04B48808846F60401884205D048486B
:104F6000808845F21031884203D12E2000F090FB5A
:104F70000DE04348808845F21051884204D14FF437
:104F8000385000F085FB02E0222000F081FB3C4815
:104F9000808849F22031884202D102200DF006F8C3
:104FA000FFF7B2FF02200DF001F8FFF7ADFF02900E
:104FB0003348808849F2413188420BD0304880889C
:104FC00045F21031884205D02D48808845F21051B5
:104FD000884210D102200CF0E9FFFFF795FF009006
:104FE000BDF80800C0B20190BDF804004FF6FF7193
:104FF00001EA002001902248808849F22531884248
:1050000016D01F48808844F23551884210D01C4881
:105010008088091F88420BD0194880884BF20551BF
:10502000884205D0164880884CF20551884202D14A
:10503000BDF8080082E71248808849F24131884271
:105040000BD00F48808845F21031884205D00C48BB
:10505000808845F2105188420DD1BDF80800C01279
:10506000C002BDF80410891240EA4110BDF80010DA
:1050700040EAE12062E7BDF80800FCF777F95DE758
:10508000600A002001B5BDF8000000F001FB05201A
:1050900007F0EEFBFFF738FF08BD0000F0B505464E
:1050A00000240027A748807901281ED1A5488088C0
:1050B00046F60401884218D0082D15D2DFE805F025
:1050C0000406080A0C0E101206250DE007250BE059
:1050D000042509E0052507E0012505E0002503E09A
:1050E000032501E0022500BF00BF9648808849F2F1
:1050F0004131884211D09348808846F604018842A5
:105100000BD09048808845F21031884205D08D48F8
:10511000808845F2105188427ED1082D1CD2DFE8EC
:1051200005F00406090C0F12151800BF14E044F036
:10513000800411E044F040040EE044F0C0040BE0B1
:1051400044F0200408E044F0600405E044F0A004CA
:1051500002E044F0E00400BF00BF7A48808845F2D6
:105160001051884202D14FF4585700E03627754855
:10517000808845F21031884207D07248808845F215
:105180001051884201D044F008046E48808846F6E9
:105190000401884201D144F002042146384600F05F
:1051A0008DFA04F0200068B1664800886549498896
:1051B000884214DA634806884088624908800846B5
:1051C00046800CE05F4800885E494988884206DDD9
:1051D0005C48068840885B490880084646805948F4
:1051E000808845F21051884254D15649488900F0D0
:1051F0004FFA002000F040FA52494989491C88B210
:1052000000F046FA002000F037FA4E494989891C1F
:1052100088B200F03DFA00E06BE04A490988491E77
:10522000C1F30F2000F028FA46494989C91C88B209
:1052300000F02EFA43490978491EC8B200F01CFA62
:105240004049888900F024FA002000F015FA3D4911
:105250008989491C88B200F01BFA002000F00CFA82
:1052600038498989891C88B200F012FA3549498881
:10527000491EC1F30F2000F0FFF932498989C91C8A
:1052800088B200F005FA2F498978491EC8B200F0AB
:10529000F3F955E02B49488900F0FAF9002000F0B5
:1052A000EBF9002000F0E8F926490988491EC1F30E
:1052B0000F2000F0E1F923490978491EC8B200F037
:1052C000DBF92049888900F0E3F9002000F0D4F9E7
:1052D000002000F0D1F91B494988491EC1F30F2075
:1052E00000F0CAF917498978491EC8B200F0C4F91C
:1052F00026E0082D1CD2DFE805F004070A0D0F1286
:10530000151844F0300413E044F0100410E044F0A9
:1053100020040DE000BF0BE044F0380408E044F046
:10532000280405E044F0180402E044F0080400BF3B
:1053300000BF032744F480542146384600F0BEF9EC
:10534000F0BD0000600A002030B504460D4640481C
:10535000808849F24131884205D03D48808845F235
:105360001031884214D13A49488900F091F920124D
:1053700000F082F9E0B200F07FF93549888900F049
:1053800087F9281200F078F9E8B200F075F95DE0CD
:105390002F48808846F6040188421DD12C48807928
:1053A000012804D12A480088401E001B84B22849E5
:1053B000488900F06DF9201200F05EF9E0B200F0CB
:1053C0005BF92349888900F063F9281200F054F949
:1053D000E8B200F051F939E01D48808845F21051DB
:1053E000884220D11A49488900F052F9201200F071
:1053F00043F917494989491C88B200F049F9E0B2DC
:1054000000F03AF91249888900F042F9281200F0B8
:1054100033F90F498989491C88B200F039F9E8B29B
:1054200000F02AF912E00A488079012804D10848DE
:105430000088401E001B84B205494889214600F0BF
:105440003DF903498889294600F038F930BD00004C
:10545000600A00202DE9F84F80460E4617461C468C
:10546000B3462046E31704EB5373DB1021464FEAA3
:10547000E47C04EB5C7C4FEAEC0CA4EBCC0CBCF1C0
:10548000000F02D04FF0010C01E04FF0000C63441C
:10549000224604EBD27C4FEA6C0C03FB0CF3DBB22C
:1054A0000093A7F12000C7B2002556E00C2C07D1CD
:1054B00007EB47002B4901EB800010F8059013E043
:1054C000102C05D1284800EB071010F805900BE0D0
:1054D000182C07D107EBC700244901EB800010F816
:1054E000059001E0BDE8F88F4FF0000A2FE009F0C9
:1054F000800030B11E48028831464046FCF762F811
:1055000007E00A9828B91B48028831464046FCF754
:1055100059F84FEA49604FEA1069701C86B2164884
:105520004088B04200DCDDE7A6EB0B00A0420AD1C8
:105530005E4608F101001FFA80F80F4800884045D8
:1055400000DCCFE706E00AF1010000F0FF0ABAF143
:10555000080FCCDB00BF681CC5B200988542A5DBF4
:1055600000BFBFE7383A0108AC3E01089C4401087F
:105570000A0000200C000020600A00202DE9FF4FE7
:1055800081B0074691461E460E9D4FF0000A00244A
:1055900039E0301B401EC1B20A20FFF7A9FCB9FB5D
:1055A000F0F00A21B0FBF1F201FB1208BAF1000F92
:1055B00016D1701EA04213DDB8F1000F0ED10020ED
:1055C000AB4605EBDB71491001FB0471009088B21A
:1055D0002B4620220299FFF73DFF12E04FF0010A0F
:1055E0000020AB4605EBDB71491001FB0471009014
:1055F00088B208F13001CAB22B460299FFF72AFFA0
:1056000000BF601CC4B2B442C3DB05B0BDE8F08F7C
:105610002DE9F84704460D4690469946DDE90967AD
:1056200004F0FF0A08EB04001FFA80F809EB0500FC
:105630001FFA80F916E0444502DB5446A81985B2EA
:105640004D4500DB14E0002000903A7833462946AF
:105650002046FFF7FFFE304606EBD07104EB6101F8
:105660008CB27F1C38787E2802DC38782028E2DA79
:1056700000BFBDE8F887000001B5BDF8000000904C
:10568000BDF800000149088008BD00008000006CE2
:1056900001B5BDF800000090BDF800000149088088
:1056A00008BD00007E00006C0248008902490880A5
:1056B00070470000600A00207E00006C03B5BDF852
:1056C000000004490880BDF804004FF0D841A1F85B
:1056D00080000CBD7E00006C1CB50B48006840F0DB
:1056E0002000094908600120032100230246CDE97A
:1056F000001049020548FBF7F7FB01200449086048
:105700000449C1F8A8021CBD303802400014024010
:10571000A4824242008042422DE9F0410746884679
:1057200014461D46284600F033F8C5F1040007FA78
:1057300000F60F20284100EA0800064306F00F0695
:10574000E21704EBD2625211920002F1E022D2F889
:1057500000212146E31704EBD3635B11A4EB431C48
:10576000012303FA0CF31A432046E31704EBD36337
:105770005B119B0003F1E023C3F800210348005DA7
:1057800040EA061001490855BDE8F08100E400E058
:105790000146072323EA01021202054B18684FF65F
:1057A000FF031840034B18431043014B1860704728
:1057B0000CED00E00000FA054A0A52020243014BD8
:1057C0001A60704708ED00E02DE9F04704460D46E9
:1057D0002E4600278A48007840B101228948016896
:1057E000894808F03FFB0020854908708748007809
:1057F00001287DD1002085490870834A84480168CA
:10580000844807F0B2FD8348FAF738FF002870D0CB
:10581000814801680068401C7F4B18607FA0FAF740
:1058200083FD00208049086080490860012080498C
:1058300008606CE0DFF8F0C1DCF800C00CEB4C0C49
:105840000CF1020CDFF8CC8118F80CC0BCF1200F71
:1058500005D04FF0000CDFF8D881C8F800C0DFF8A1
:10586000C8C1DCF800C00CEB4C0CDFF8A88118F8BC
:105870000C00DFF8B4C1DCF800C00CEB4C0C0CF1F0
:10588000010C18F80C10302806DB392804DCA0F1D4
:10589000300C0CF0FF0207E0412805DB462803DC52
:1058A000A0F1370C0CF0FF02302906DB392904DCAB
:1058B000A1F1300C0CF0FF0307E0412905DB46297C
:1058C00003DCA1F1370C0CF0FF0303EB021CDFF843
:1058D0006481DFF85891D9F8009008F809C0DFF822
:1058E00048C1DCF800C00CF1010CDFF83C8101E09C
:1058F00048E048E0C8F800C0DFF830C1DCF800C07C
:105900000CF1010CDFF82481C8F800C000BF484842
:10591000006800288ED14848006840B101214748FE
:10592000427804F56C7000EB4210417607E00021EC
:105930004248427804F56C7000EB421041764048D2
:1059400043783A48008882B23A49204602F0EBF8A0
:105950003948006880F00100374908600020394963
:10596000086004E037480068401C36490860344845
:1059700041782046FBF7A7FB01280AD03148006890
:105980006428EFDB05E0204807F0F2FB01202E49F8
:1059900008702E48B0F9000000282EDD2B48008842
:1059A000401E00B229490880002029490860244887
:1059B000037840222749204602F085F804E0244875
:1059C0000068401C224908601D4801782046FBF70A
:1059D0007AFB012803D01E4800686428EFDB1848D2
:1059E00001782046FBF774FB1B49088008460088B5
:1059F000002802DD0120194908600020BDE8F08779
:105A00003D0300201803002040D1012002030020A4
:105A1000F802002068D30120380300206275666E0A
:105A2000756D3D25640D0A0020030020240300202D
:105A30002803002030D4012034030020420300203A
:105A4000FCC80120040300203F030020FC020020CA
:105A50000C03002070D4012030030020100300202C
:105A60002DE9F04704460D462E4600279E48007853
:105A700040B101229D4801689D4808F0F3F90020DB
:105A8000994908709B48007801287CD100209949E9
:105A900008709948007828B1954A98480168984854
:105AA00007F063FC9648FAF7E9FD00286CD09449AA
:105AB00094A0FAF739FC944801680068401C924BA6
:105AC000186092A0FAF730FC0020934908609349CF
:105AD00008600120924908606CE0DFF83CC2DCF805
